:096C250012694612566280FB223E
:104ECA00900179EEF0A3EFF0A3ECF0A3EDF0A3EAE2
:044EDA00F0A3EBF066
:104EDE0090018B12151000000000900179E0FFA3E5
:104EEE00E0900193CFF0A3EFF090017BE0FFA3E001
:104EFE00900195CFF0A3EFF090018F1215100000E6
:104F0E000000900181E0F8A3E0F9A3E0FAA3E0FB32
:104F1E00A3E0FCA3E0FDA3E0FEA3E0C39BFFEE9A9B
:104F2E00FEED99FDEC98FCE47B02FAF9F8121440C0
:104F3E0090018FE0F8A3E0F9A3E0FAA3E0FBC3121F
:104F4E0014E0400302506E90018FE0FCA3E0FDA33D
:104F5E00E0FEA3E0FF900181E0F8A3E0F9A3E0FA00
:104F6E00A3E02FFFEA3EFEE93DFDE83CFC90028304
:104F7E00E4F0A37402F07B017A0179891262EF905A
:104F8E000193E0FAA3E0FBFFAE02C007A3E0FCA38F
:104F9E00E0FD900195E0FFA3E0900299CFF0A3EF22
:104FAE00F0D00712670690018AE0FF900189E0FDBC
:104FBE00126C46900194E004F07006900193E004A8
:104FCE00F0900179E0FEA3E0FF90017EE02FFD90CE
:104FDE00017DE03EFC900193E0B50443A3E0B505EE
:104FEE003E900196E004F07006900195E004F0907A
:104FFE000193EEF0A3EFF090017BE0FEA3E0FF90B3
:10500E000180E02FFD90017FE03EFC900195E0B520
:10501E00040DA3E0B50508900195EEF0A3EFF09016
:10502E00018FE0FCA3E0FDA3E0FEA3E02401FFE47A
:10503E003EFEE43DFDE43CFC90018F121504900110
:10504E008FE0FCA3E0FDA3E0FEA3E02401FFE43E1D
:10505E00FEE43DFDE43CFC90018F121504024F105E
:01506E00221F
:106A9100EF1FAC0670011E4C600F000000000000EB
:0A6AA1000000000000000080E72262
:106A3300E4FDFCC3ED9FEC9E5015E4FBFA0BBB0099
:0F6A4300010ABA0AF8BB78F50DBD00010C80E41A
:016A52002221
:0D000E0043B44053B3BF43B42053B3DF22CB
:106B2600D2C5D2C67F0A7E00126A91C2C57F0A7E8E
:076B360000126A91C2C622A1
:106B6B00C2C5D2C67F0A7E00126A91D2C57F0A7E49
:056B7B0000126A9122E6
:106B3D00A20092C5D2C67F0A7E00126A91C2C67F9C
:076B4D000A7E00126A91228A
:106A1200D2C653B4DF43B3207F0A7E00126A91A22A
:106A2200C5C2C643B42053B3DF7F0A7E00126A9107
:016A32002241
:0568DE00900196EFF0AF
:1068E300E4A3F0900196E0FF25E0F092C5D2C67FC5
:1068F3000A7E00126A91C2C67F0A7E00126A9190D4
:0E6903000197E004F0E0C3940840D8126A1235
:016911002263
:1067BB00E4900197F053B4DF43B320900196F0902F
:1067CB000197E0FF25E0F0D2C67F0A7E00126A91A6
:1067DB00900197E0FFA2C5E433FEEF4EF0C2C67FF7
:1067EB00147E00126A91900196E004F0E0C39408C5
:0D67FB0040CD43B42053B3DF900197E0FF81
:01680800226D
:0E6BC600438910E4F58B758D28D2ABD2AF2237
:03000B00026A5333
:106A5300C0E0C083C082C0D0758A34758CF59003C2
:106A630087E0B40102B2C2D0D0D082D083D0E0326A
:03001B00026AABCB
:106AAB00C0E0C083C082758BB0758D3C900388E0CD
:096ABB0004F0D082D083D0E03257
:0C49A20042037FEF17C1094203830000AD
:1069CC004391105392EF5391F743922853C9FE43CE
:1069DC00CA01E5A254F342A275CDC0D2C8E4F5CFEA
:0469EC0075CED22270
:106B9500E4FFC2C87F05126BD47FFF126BD4D2C845
:016BA50022CD
:0D6BD4008FCFE5CD30E7FB75CDC0AFCF22F0
:1062EF0090027CEBF0A3EAF0A3E9F0A312150412DD
:1062FF006B95EF20E0F9C2C87F03126BD490027F39
:10630F00E0FCA3E0FDA3E0FEA3E0E4FFFEEDE4FC70
:10631F0078101214F1126BD490027FE0FCA3E0FD11
:10632F00A3E0FEA3E0E4FFEEE4FDFC78081214F115
:10633F00126BD490027FE0FCA3E0FDA3E0FEA3E08C
:10634F00FFE4126BD490028374FFF5F012138045B3
:10635F00F060207FFF126BD490027CE0FBA3E0FA89
:10636F00A3E0F9EF1212F190027DE475F001121320
:06637F006A80D2D2C822A0
:10697900D6F7BDE7C3E600B5B1C7B0BBB7BEB3BC78
:10698900ECB2E23A00B9E2D5D5B6C83A00CEC2B601
:0C699900C83A00CAAAB6C83A00000000C4
:0A6C1B0043B41053B3EF12000E2231
:106AC400900195EFF0126B267F461268DE900195D7
:096AD400E0FF1268DE126B6B2278
:10685600126B267F471268DEE4900195F01267BB43
:10686600900195E0FE244BF582E43403F583EFF0C6
:10687600EEB40307D200126B3D8005C200126B3DD9
:10688600900195E004F0E0C3940340D1126B6B7F56
:06689600057E00126A33CA
:01689C0022D9
:066C40007F01126AC4226C
:105D7A007F01126AC47F10126AC47FB47E00126A5D
:105D8A003312685690034BE0FF90034EE4F0A3EF02
:105D9A00F0E0FE90034CE07C002400FFEC3E900310
:105DAA004EF0A3EFF090034EE0FCA3E0FDE4120DE9
:105DBA004B7B9A7A997999783F120CA9120D8490A3
:105DCA00034EEEF0A3EFF090034EE0FAA3E0FB7C63
:105DDA00277D10FFAE02121315EF2430A3F07C27A3
:105DEA007D10AF03AE02121315AB05AA047C037D26
:105DFA00E8AF03AE02121315EF2430A3F07C037D43
:105E0A00E8AF03AE02121315AA04AB057C007D6449
:105E1A00AF03AE02121315EF2430A3F07C007D64A9
:105E2A00AF03AE02121315AA04AB057C007D0AAFBC
:105E3A0003AE02121315EF2430A3F07C007D0AAFE3
:105E4A0003AE02121315AA04AB05EB2430A3F0E447
:025E5A00A3F0B3
:015E5C002223
:096C2E00D2C443B41053B3EF22A9
:096C3700D2C453B4EF43B31022A0
:106B5400126C2EC2C47F147E00126A33126C377F0B
:076B64001E7E00126A91225F
:10689D00E4900197F0900196F0900197E0FF25E0CC
:1068AD00F020C4FD7F287E00126A9130C4FD7F2345
:1068BD007E00126A9130C407900197E04401F09078
:1068CD000196E004F0E0C3940840CE900197E0FFFC
:0168DD002298
:10624E00126B5420C4FD7F507E00126A9130C4FD43
:10625E007F507E00126A9112689D90035CEFF012DF
:10626E00689D90035EEFF012689D90035DEFF01253
:10627E00689D90034AEFF012689D900195EFF02013
:10628E00C4FD7F327E00126A91126C2E90035EE086
:10629E00FF90035CE02FFFA3E02FFF90034AE02F57
:1062AE00FF900195E06F703890035DE0FD75F00A88
:1062BE00842430900359F0ED75F00A84E5F0243013
:1062CE00A3F0E4A3F0A3E0FD75F00A84243090035C
:1062DE0056F0ED75F00A84E5F02430A3F0E4A3F057
:0162EE00228D
:105ABB0090019B7401F0A37430F0A374C6F0A3742F
:105ACB0038F07BF07A007D107C00E4FFFE12619AC7
:105ADB0090019B74FFF0A37469F0A37479F0E4A3B5
:105AEB00F0A3F074FFA3F0A3F07B027A007D137C8C
:105AFB0000E4FFFE1220F990019B74FFF0A3746980
:105B0B00F0A37480F0E4A3F0A3F0A374C6F0A37425
:105B1B0038F07B027A007D017C007F087E0012202A
:105B2B00F990019B74FFF0A37469F0A3748EF0E4F9
:105B3B00A3F0A3F0A374C6F0A37438F07B027A0031
:105B4B007D037C00E4FFFE1220F990019B74FFF0B3
:105B5B00A37469F0A37496F0E4A3F0A3F0A374C646
:105B6B00F0A37438F07B027A007D037C007F0D7EFE
:105B7B00001220F990019B74FFF0A37469F0A374D9
:105B8B009CF0E4A3F0A3F0A374C6F0A37438F07BED
:0F5B9B00027A007D037C007F157E001220F92224
:104D1E0090019BE4F0A374C8F074FFA3F0A3F07BA2
:104D2E00C87A007D467C007F147E0012619A900145
:104D3E009B7401F0A3740EF0E4A3F0A3F07B14FABD
:104D4E007D46FC7F14FE1241D190019BE4F0A374CA
:104D5E0050F0E4A3F0A3F07B0FFA7D46FC7F14FE27
:104D6E001241D190019BE4F0A37450F0E4A3F0A3A0
:104D7E00F07B19FA7D46FC7F14FE1241D190019B07
:104D8E007401F0A3740EF0E4A3F0A3F07BDCFA7DC3
:104D9E000E7C017F14FE1241D190019B7401F0A391
:104DAE007409F0E4A3F0A3F07BD2FA7D0E7C017FB0
:104DBE00DCFE1241D190019B7401F0A37413F0E458
:104DCE00A3F0A3F07BD2FA7D0E7C017FDCFE1241B4
:104DDE00D190019BE4F0A3745AF0E4A3F0A3F07B0E
:104DEE0019FA7D5AFC7F14FE1241D190019BE4F01A
:104DFE00A3746EF0E4A3F0A3F07B19FA7D6EFC7F32
:104E0E0014FE1241D190019BE4F0A37482F0E4A34E
:104E1E00F0A3F07B19FA7D82FC7F14FE1241D19033
:104E2E00019BE4F0A37496F0E4A3F0A3F07B19FACF
:104E3E007D96FC7F14FE1241D190019BE4F0A37489
:104E4E00AAF0E4A3F0A3F07B19FA7DAAFC7F14FE6E
:104E5E001241D190019BE4F0A374BEF0E4A3F0A341
:104E6E00F07B19FA7DBEFC7F14FE1241D190019B9E
:104E7E00E4F0A374D2F0E4A3F0A3F07B19FA7DD290
:104E8E00FC7F14FE1241D190019BE4F0A374E6F076
:104E9E00E4A3F0A3F07B19FA7DE6FC7F14FE124129
:104EAE00D190019BE4F0A374FAF0E4A3F0A3F07B9D
:0C4EBE0019FA7DFAFC7F14FE1241D1228B
:1039A500900179E4F0A37414F0A37401F0A3740EEC
:1039B500F0900181E4F0A37414F0A37401F0A374F2
:1039C5000EF0900189E4F0A37414F0A37401F0A340
:1039D500740EF09001917408F078927C017D017B62
:1039E500FF7A6979A27E007F03121285125ABB12F3
:1039F5006C1B124D1E126C40126BC6D28E126C4C93
:103A0500EF7056125385EF6050C3900374E0943005
:103A1500900373E094005041900376E0942A90035C
:103A250075E094014033C28EC2ABE4900388F090F8
:103A3500019B74FFF0A37469F0A37479F074FFA37C
:103A4500F0A3F0A3E4F0A3741FF07B027A007D13CA
:103A55007C00E4FFFE1220F922125D7A7B017A03D5
:103A6500795090019C7403F0A37497F0A374C6F089
:103A7500A37438F07D037C007F077E00123F6090C1
:103A85000388E0D394325003023A02E4F012624E06
:103A95007B017A03795990019C74D2F0A374A3F049
:103AA500A374C6F0A37438F07D037C007F127E00FA
:103AB500123F607B017A03795690019C7475F0A3DF
:103AC5007446F0A374C6F0A37438F07D037C007FC0
:103AD5001A7E00123F60C390017AE094C890017984
:103AE500E094004003023C93900191E0FD7C00903E
:103AF5000179E0FAA3E0FB2DFEEC3A90017DF0A3FD
:103B0500CEF090035DE075F002A4FFAEF0C3740E35
:103B15009F900180F074019E90017FF0AF03AE028B
:103B2500C00790017BE0FCA3E0FDA3E0FAA3E0FB66
:103B3500A3E0FFA3E090019BCFF0A3EFF0A374D225
:103B4500F0A374A3F0D0071241D190017DE0FFA34B
:103B5500E0900179CFF0A3EFF090017FE0FFA3E0C3
:103B650090017BCFF0A3EFF0900191E0FD7C0090F8
:103B75000181E0FAA3E0FB2DFEEC3A900185F0A36C
:103B8500CEF090035CE075F002A4FFAEF0C3740EB6
:103B95009F900188F074019E900187F0AF03AE02FB
:103BA500C007900183E0FCA3E0FDA3E0FAA3E0FBDE
:103BB500A3E0FFA3E090019BCFF0A3EFF0A3747502
:103BC500F0A37446F0D0071241D1900185E0FFA320
:103BD500E0900181CFF0A3EFF0900187E0FFA3E033
:103BE500900183CFF0A3EFF0900191E0FD7C009070
:103BF5000189E0FAA3E0FB2DFEEC3A90018DF0A3DC
:103C0500CEF090034EE0FEA3E0FFC394E8EE9403EC
:103C15005024EF2405FFE43EFE7D0A121315EF251F
:103C2500E0FFEE33FEC3740E9F900190F074019E89
:103C350090018FF0800990018FE4F0A37446F0AFF6
:103C450003AE02C00790018BE0FCA3E0FDA3E0FA00
:103C5500A3E0FBA3E0FFA3E090019BCFF0A3EFF06F
:103C6500A37403F0A37497F0D0071241D190018D8E
:103C7500E0FFA3E0900189CFF0A3EFF090018FE082
:103C8500FFA3E090018BCFF0A3EFF0023A02900181
:103C950079E4F0A37414F0900181E4F0A37414F0B6
:0F3CA500900189E4F0A37414F0124D1E023A024C
:013CB40022ED
:106809004350553A535443313557344B3438533444
:1068190000BCF2D2D7C6F8CFF3D5BE00B6CCD0C5EE
:10682900B7A2CBCD00BBB7BEB3BCE0B2E200B5E7BF
:10683900BBB0C9E8B6A800B5B1C7B0C9E8B6A8B534
:0D684900C4B5E7BBB0BAC5C2EBCEAA3A0099
:0449AE004103890038
:104B6C007D0F7C1AE4FFFE1265317BFF7A687909B0
:104B7C0074FF90019CF0A3F0A3741AF0A3740FF0CF
:104B8C00E4FDFCFFFE123F6090019B74FFF0A374E8
:104B9C0068F0A3741AF074FFA3F0A3F0A3741AF0D6
:104BAC00A3740FF07B027A00E4FDFC7F14FE12204C
:104BBC00F990019B7401F0A37430F0A37465F0A319
:104BCC00749BF07BF07A007D107C00E4FFFE126198
:104BDC009A90019B74FFF0A37468F0A37425F0E421
:104BEC00A3F0A3F074FFA3F0A3F07B027A007D077F
:104BFC007C007F027E001220F990019B74FFF0A3D1
:104C0C007468F0A3742EF0E4A3F0A3F074FFA3F087
:104C1C00A3F07B027A007D077C007F0B7E001220C4
:104C2C00F990019B74FFF0A37468F0A37437F0E45F
:104C3C00A3F0A3F074FFA3F0A3F07B027A007D072E
:104C4C007C007F147E001220F990017FE4F0A374A5
:104C5C0037F0A31215100061500090018512151049
:104C6C0000617F447B377A007D327C007F117E00AF
:104C7C00124ECA90017FE4F0A37437F0A312151002
:104C8C000062100090018512151000623F447B37C2
:104C9C007A007D327C007F5C7E00124ECA90017FD0
:104CAC00E4F0A37437F0A31215100061F00090012A
:104CBC008512151000621F447B377A007D327C0010
:104CCC007FA77E00124ECA90019B74FFF0A37468FC
:104CDC00F0A37440F0E4A3F0A3F0A37465F0A37404
:104CEC009BF07B027A007D0D7C007F027E001220FF
:104CFC00F97B017A037963E490019CF0A3F0A3742F
:104D0C0065F0A3749BF07D0E7C007F087E00123F43
:024D1C00602213
:10566200124B6C126C4CEF70FA125385EF60F4E43B
:10567200900389F0900375E0FEA3E0FFD39432EE2D
:1056820094004057EF9469EE9400504F900373E0FA
:10569200FEA3E0FF9411EE94004010EF9448EE94C4
:1056A2000050089003897401F08030D3EF945CEECF
:1056B20094004010EF9493EE940050089003897484
:1056C20002F08017D3EF94A7EE9400400EEF94DE21
:1056D200EE940050069003897403F0900389E0B4BD
:1056E200012C90019B74FFF0A37468F0A37425F061
:1056F20074FFA3F0A3F0A3E4F0A3741FF07B027A7B
:10570200007D077C007F027E001220F980689003F2
:1057120089E0B4022C90019B74FFF0A37468F0A39B
:10572200742EF074FFA3F0A3F0A3E4F0A3741FF0AF
:105732007B027A007D077C007F0B7E001220F980BD
:1057420035900389E06403600302566590019B74FF
:10575200FFF0A37468F0A37437F074FFA3F0A3F012
:10576200A3E4F0A3741FF07B027A007D077C007F24
:10577200147E001220F9126C4CEF60FA900389E05B
:1057820024FE600B14600C2402700B1245DB221203
:0757920039A52212174F2276
:0C6BE1004F4B002B435245473A20310037
:1049B20041029B0041029C0041029D004103030011
:1049C200410302006064029E00000000000000003B
:1049D20000000000000000000000000000000000D5
:1049E20000000000000000000000000000000000C5
:1049F20000000000000000000000000000000000B5
:104A020000000000000000000000000000000000A4
:104A12000000000000000000000000000000000094
:0C4A220000000000000000000000000088
:106ADD005392FE43910153B2FE43B10143920253CF
:096AED0091FD43B20253B1FD22F8
:106BA60075985075D7B875D6FF438E15D2ACD2AF4F
:016BB60022BC
:0F6BB700900303E070FA8F999003037401F022AA
:1069120090017DEBF0A3EAF0A3E9F090017DE0FBAA
:10692200A3E0FAA3E0F91212AB601890017DE0A394
:10693200E475F001121380A9F0FA1212ABFF126B88
:04694200B780D82220
:03002300025E5D1D
:105E5D00C0E0C0F0C083C082C0D075D000C000C00B
:0D5E6D0001C002C003C004C005C006C0078C
:105E7A00209803025F16C298900178E599F0E0FF36
:105E8A00C394804003025F16EF640D7003025F2023
:105E9A00EF640A704D900302E0249EF582E4340216
:105EAA00F583E4F0900302F07A02799E789E7C02F0
:105EBA007D017BFF7A6B79E1121732EF700790024E
:105ECA009B04F080477A02799E789E7C027D017B52
:105EDA00FF7A6B79E4121732EF703190029C04F06A
:105EEA00802A900178E0FF900302E0FE04F0749E9D
:105EFA002EF582E43402F583EFF090029EE0B43E80
:105F0A000BA3E0B4200690029D7401F0309907C2F9
:065F1A0099900303E4F07E
:105F2000D007D006D005D004D003D002D001D000D5
:0B5F3000D0D0D082D083D0F0D0E0327F
:106A7300310032003300340035003600370038006F
:0E6A8300390044656C003000456E7465720089
:104A2E00410361004C036331323334353637383944
:0C4A3E003031004103620042035F300091
:1030160090019B7401F0A37440F0A37465F0A3744F
:103026009BF07BF07A007D107C00E4FFFE12619A33
:1030360090017FE4F0A37446F0A37422F0A3746EAB
:10304600F07BDE7A007D147C007F117E00125C939B
:10305600900183E4F0A37431F074FFA3F0A3F07B36
:10306600CC7A007D157C007F127E001264A7900149
:103076007FE4F0A37482F0A37422F0A3746EF07B55
:10308600487A007D507C007F117E00125C9390018F
:103096007FE4F0A37482F0A37422F0A3746EF07B35
:1030A600937A007D507C007F5C7E00125C939001D9
:1030B6007FE4F0A37482F0A37422F0A3746EF07B15
:1030C600DE7A007D507C007FA77E00125C93900123
:1030D6007FE4F0A374BEF0A37422F0A3746EF07BB9
:1030E600487A007D8C7C007F117E00125C939001F3
:1030F6007FE4F0A374BEF0A37422F0A3746EF07B99
:10310600937A007D8C7C007F5C7E00125C9390013C
:103116007FE4F0A374BEF0A37422F0A3746EF07B78
:10312600DE7A007D8C7C007FA77E00125C93900186
:103136007FE4F0A374FAF0A37422F0A3746EF07B1C
:10314600487A007DC87C007F117E00125C93900156
:103156007FE4F0A374FAF0A37422F0A3746EF07BFC
:10316600937A007DC87C007F5C7E00125C939001A0
:103176007FE4F0A374FAF0A37422F0A3746EF07BDC
:10318600DE7A007DC87C007FA77E00125C939001EA
:103196007F7401F0A37436F0A37422F0A3746EF06A
:1031A6007B487A007D047C017F117E00125C93903F
:1031B600017F7401F0A37436F0A37422F0A3746E39
:1031C600F07B937A007D047C017F5C7E00125C9329
:1031D60090017F7401F0A37436F0A37422F0A374F7
:1031E6006EF07BDE7A007D047C017FA77E00125C98
:1031F60093900183E4F0A37431F0A3743CF0A374BC
:10320600DAF07B367A007D517C007F127E001264F4
:10321600A7900183E4F0A37431F0A3743CF0A37487
:10322600DAF07B367A007D517C007F5D7E00126489
:10323600A7900183E4F0A37431F0A3743CF0A37467
:10324600DAF07B367A007D517C007FA87E0012641E
:10325600A7900183E4F0A37431F0A3743CF0A37447
:10326600DAF07B367A007D8D7C007F127E00126458
:10327600A7900183E4F0A37431F0A3743CF0A37427
:10328600DAF07B367A007D8D7C007F5D7E001264ED
:10329600A7900183E4F0A37431F0A3743CF0A37407
:1032A600DAF07B367A007D8D7C007FA87E00126482
:1032B600A7900183E4F0A37431F0A3743CF0A374E7
:1032C600DAF07B367A007DC97C007F127E001264BC
:1032D600A7900183E4F0A37431F0A3743CF0A374C7
:1032E600DAF07B367A007DC97C007F5D7E00126451
:1032F600A7900183E4F0A37431F0A3743CF0A374A7
:10330600DAF07B367A007DC97C007FA87E001264E5
:10331600A7900183E4F0A37431F0A3743CF0A37486
:10332600DAF07B367A007D057C017F127E0012641E
:10333600A7900183E4F0A37431F0A3743CF0A37466
:10334600DAF07B367A007D057C017F5D7E001264B3
:10335600A7900183E4F0A37431F0A3743CF0A37446
:10336600DAF07B367A007D057C017FA87E00126448
:10337600A77B017A037963E490019CF0A3F074FFC4
:10338600A3F0A3F07D027C007F057E00123F607BE8
:10339600FF7A6A797374FF90019CF0A3F0A3743CE2
:1033A600F0A374DAF07D067C007F057E00123F6094
:1033B6007BFF7A6A797574FF90019CF0A3F0A37481
:1033C6003CF0A374DAF07D067C007F0E7E00123F8F
:1033D600607BFF7A6A797774FF90019CF0A3F0A373
:1033E600743CF0A374DAF07D067C007F187E001230
:1033F6003F607BFF7A6A797974FF90019CF0A3F0B5
:10340600A3743CF0A374DAF07D0A7C007F057E008D
:10341600123F607BFF7A6A797B74FF90019CF0A370
:10342600F0A3743CF0A374DAF07D0A7C007F0E7E74
:1034360000123F607BFF7A6A797D74FF90019CF0F1
:10344600A3F0A3743CF0A374DAF07D0A7C007F1825
:103456007E00123F607BFF7A6A797F74FF90019C41
:10346600F0A3F0A3743CF0A374DAF07D0E7C007F29
:10347600057E00123F607BFF7A6A798174FF9001B6
:103486009CF0A3F0A3743CF0A374DAF07D0E7C00EC
:103496007F0E7E00123F607BFF7A6A798374FF900D
:1034A600019CF0A3F0A3743CF0A374DAF07D0E7CCB
:1034B600007F187E00123F607BFF7A6A798574FF71
:1034C60090019CF0A3F0A3743CF0A374DAF07D1194
:1034D6007C007F047E00123F607BFF7A6A798974E4
:1034E600FF90019CF0A3F0A3743CF0A374DAF07D86
:1034F600117C007F0E7E00123F607BFF7A6A798B1B
:1035060074FF90019CF0A3F0A3743CF0A374DAF06E
:0C3516007D117C007F167E00123F6022B9
:10174F00E4900362F01230167B017A037963E49020
:10175F00019CF0A3F074FFA3F0A3F07D027C007F47
:10176F00057E00123F60900362E0FF2463F582E480
:10177F003403F583E090035FF0EF2405FFE433FEBD
:10178F007B017A03795F74FF90019CF0A3F0A3E4CF
:10179F00F0A3741FF07D027C00123F60126C4CEFBF
:1017AF0070FA125385EF60F4E4900361F0900375C3
:1017BF00E0FEA3E0FFD39450EE94004062EF9482DA
:1017CF00EE9400505A900373E0FEA3E0FF9411EEE5
:1017DF0094004011EF9448EE940050099003617407
:1017EF0001F0021972D3EF945CEE94004011EF9464
:1017FF0093EE940050099003617402F0021972D3B2
:10180F00EF94A7EE94005003021972EF94DEEE945A
:10181F000040030219729003617403F00219729071
:10182F000375E0FEA3E0FFD3948CEE94004062EFCB
:10183F0094BEEE9400505A900373E0FEA3E0FF9421
:10184F0011EE94004011EF9448EE9400500990036C
:10185F00617404F0021972D3EF945CEE940040119E
:10186F00EF9493EE940050099003617405F0021900
:10187F0072D3EF94A7EE94005003021972EF94DE27
:10188F00EE940040030219729003617406F002197E
:10189F0072900375E0FEA3E0FFD394C8EE9400406E
:1018AF005BEF94FAEE94005053900373E0FEA3E0C5
:1018BF00FF9411EE94004011EF9448EE94005009FC
:1018CF009003617407F0021972D3EF945CEE9400E9
:1018DF004011EF9493EE940050099003617408F057
:1018EF00021972D3EF94A7EE94004077EF94DEEED7
:1018FF009400506F9003617409F08067900375E056
:10190F00FEA3E0FFD39404EE94014057EF9436EE1C
:10191F009401504F900373E0FEA3E0FF9411EE94F7
:10192F00004010EF9448EE94005008900361740A41
:10193F00F08030D3EF945CEE94004010EF9493EE70
:10194F0094005008900361740BF08017D3EF94A7A5
:10195F00EE9400400EEF94DEEE940050069003617B
:10196F00740CF0900361E064017043900183F0A365
:10197F007431F0A37433F0A374D4F07B367A007D06
:10198F00517C007F127E001264A77BFF7A6A797305
:10199F0074FF90019CF0A3F0A37433F0A374D4F000
:1019AF007D067C007F057E00123F60021CF59003D0
:1019BF0061E064027043900183F0A37431F0A3746B
:1019CF0033F0A374D4F07B367A007D517C007F5DB9
:1019DF007E001264A77BFF7A6A797574FF90019C71
:1019EF00F0A3F0A37433F0A374D4F07D067C007FD2
:1019FF000E7E00123F60021CF5900361E0640370DD
:101A0F0043900183F0A37431F0A37433F0A374D423
:101A1F00F07B367A007D517C007FA87E001264A790
:101A2F007BFF7A6A797774FF90019CF0A3F0A3741F
:101A3F0033F0A374D4F07D067C007F187E00123F34
:101A4F0060021CF5900361E064047043900183F021
:101A5F00A37431F0A37433F0A374D4F07B367A00FF
:101A6F007D8D7C007F127E001264A77BFF7A6A79DE
:101A7F007974FF90019CF0A3F0A37433F0A374D496
:101A8F00F07D0A7C007F057E00123F60021CF590FE
:101A9F000361E064057043900183F0A37431F0A3F8
:101AAF007433F0A374D4F07B367A007D8D7C007F85
:101ABF005D7E001264A77BFF7A6A797B74FF9001C9
:101ACF009CF0A3F0A37433F0A374D4F07D0A7C00D0
:101ADF007F0E7E00123F60021CF5900361E06406EA
:101AEF007043900183F0A37431F0A37433F0A374A7
:101AFF00D4F07B367A007D8D7C007FA87E00126447
:101B0F00A77BFF7A6A797D74FF90019CF0A3F0A305
:101B1F007433F0A374D4F07D0A7C007F187E00121A
:101B2F003F60021CF5900361E064077043900183EE
:101B3F00F0A37431F0A37433F0A374D4F07B367A2E
:101B4F00007DC97C007F127E001264A77BFF7A6A3A
:101B5F00797F74FF90019CF0A3F0A37433F0A3740A
:101B6F00D4F07D0E7C007F057E00123F60021CF5D5
:101B7F00900361E064087043900183F0A37431F027
:101B8F00A37433F0A374D4F07B367A007DC97C0044
:101B9F007F5D7E001264A77BFF7A6A798174FF9064
:101BAF00019CF0A3F0A37433F0A374D4F07D0E7CEA
:101BBF00007F0E7E00123F60021CF5900361E0640F
:101BCF00097043900183F0A37431F0A37433F0A331
:101BDF0074D4F07B367A007DC97C007FA87E00121A
:101BEF0064A77BFF7A6A798374FF90019CF0A3F05E
:101BFF00A37433F0A374D4F07D0E7C007F187E00A5
:101C0F00123F60021CF5900361E0640A704390017B
:101C1F0083F0A37431F0A37433F0A374D4F07B3644
:101C2F007A007D057C017F127E001264A77BFF7A0C
:101C3F006A798574FF90019CF0A3F0A37433F0A32D
:101C4F0074D4F07D117C007F047E00123F60021C73
:101C5F00F5900361E0640B7042900183F0A374313F
:101C6F00F0A37433F0A374D4F07B367A007D057C37
:101C7F00017F5D7E001264A77BFF7A6A798974FF0A
:101C8F0090019CF0A3F0A37433F0A374D4F07D11F2
:101C9F007C007F0E7E00123F60804B900361E064FA
:101CAF000C60030217AB900183F0A37431F0A3749F
:101CBF0033F0A374D4F07B367A007D057C017FA8C6
:101CCF007E001264A77BFF7A6A798B74FF90019C68
:101CDF00F0A3F0A37433F0A374D4F07D117C007FD4
:101CEF00167E00123F60126C4CEF60FA900361E0B9
:101CFF0014B40C0040030220CE901D1675F003A4FF
:101D0F00C58325F0C58373021D3A021D8E021DE2A5
:101D1F00021E36021E8A021EDE021F32021F8602BA
:101D2F001FDA02202E02207D0220F8900362E024A9
:101D3F0063F582E43403F5837431F0900183E4F0AA
:101D4F00A37431F0A3743CF0A374DAF07B367A00FD
:101D5F007D517C007F127E001264A77BFF7A6A7927
:101D6F007374FF90019CF0A3F0A3743CF0A374DA9A
:101D7F00F07D067C007F057E00123F600220CE9032
:101D8F000362E02463F582E43403F5837432F09048
:101D9F000183E4F0A37431F0A3743CF0A374DAF080
:101DAF007B367A007D517C007F5D7E001264A77BBD
:101DBF00FF7A6A797574FF90019CF0A3F0A3743CCD
:101DCF00F0A374DAF07D067C007F0E7E00123F6078
:101DDF000220CE900362E02463F582E43403F5839E
:101DEF007433F0900183E4F0A37431F0A3743CF0EA
:101DFF00A374DAF07B367A007D517C007FA87E00D9
:101E0F001264A77BFF7A6A797774FF90019CF0A325
:101E1F00F0A3743CF0A374DAF07D067C007F187E8B
:101E2F0000123F600220CE900362E02463F582E44B
:101E3F003403F5837434F0900183E4F0A37431F02C
:101E4F00A3743CF0A374DAF07B367A007D8D7C00AE
:101E5F007F127E001264A77BFF7A6A797974FF90F4
:101E6F00019CF0A3F0A3743CF0A374DAF07D0A7C1C
:101E7F00007F057E00123F600220CE900362E024B7
:101E8F0063F582E43403F5837435F0900183E4F055
:101E9F00A37431F0A3743CF0A374DAF07B367A00AC
:101EAF007D8D7C007F5D7E001264A77BFF7A6A794F
:101EBF007B74FF90019CF0A3F0A3743CF0A374DA41
:101ECF00F07D0A7C007F0E7E00123F600220CE90D4
:101EDF000362E02463F582E43403F5837436F090F3
:101EEF000183E4F0A37431F0A3743CF0A374DAF02F
:101EFF007B367A007D8D7C007FA87E001264A77BE5
:101F0F00FF7A6A797D74FF90019CF0A3F0A3743C73
:101F1F00F0A374DAF07D0A7C007F187E00123F6018
:101F2F000220CE900362E02463F582E43403F5834C
:101F3F007437F0900183E4F0A37431F0A3743CF094
:101F4F00A374DAF07B367A007DC97C007F127E00A5
:101F5F001264A77BFF7A6A797F74FF90019CF0A3CC
:101F6F00F0A3743CF0A374DAF07D0E7C007F057E45
:101F7F0000123F600220CE900362E02463F582E4FA
:101F8F003403F5837438F0900183E4F0A37431F0D7
:101F9F00A3743CF0A374DAF07B367A007DC97C0021
:101FAF007F5D7E001264A77BFF7A6A798174FF9050
:101FBF00019CF0A3F0A3743CF0A374DAF07D0E7CC7
:101FCF00007F0E7E00123F600220CE900362E0245D
:101FDF0063F582E43403F5837439F0900183E4F000
:101FEF00A37431F0A3743CF0A374DAF07B367A005B
:101FFF007DC97C007FA87E001264A77BFF7A6A7977
:10200F008374FF90019CF0A3F0A3743CF0A374DAE7
:10201F00F07D0E7C007F187E00123F600220CE9074
:10202F000362E0D394004003E014F0900183E4F0E6
:10203F00A37431F0A3743CF0A374DAF07B367A000A
:10204F007D057C017F127E001264A77BFF7A6A797F
:10205F008574FF90019CF0A3F0A3743CF0A374DA95
:10206F00F07D117C007F047E00123F608051900351
:10207F0062E02463F582E43403F5837430F0900159
:10208F0083E4F0A37431F0A3743CF0A374DAF07B13
:10209F00367A007D057C017F5D7E001264A77BFF91
:1020AF007A6A798974FF90019CF0A3F0A3743CF0D5
:1020BF00A374DAF07D117C007F0E7E00123F6090DA
:1020CF000361E0FFE4C39F5006EFC3940A4008EF9B
:1020DF00640B6003021757900362E0C3940A400336
:0A20EF00021757E004F00217572211
:105BAA005265666C6173680053656E64206D657337
:105BBA007361676500B5B1C7B0D0C5CFA2C4DAC8F2
:105BCA00DDA3BA00B5B1C7B0B9E2D5D5C7BFB6C86B
:105BDA00A3BA00B5B1C7B0CEC2B6C8A3BA00B5B1B0
:105BEA00C7B0CAAAB6C8A3BA00B6CCD0C5B7A2CBAA
:105BFA00CDD6C1A3BA00D6F7BDE7C3E60025732503
:105C0A0073257325732573257300696C6C756D692B
:105C1A006E616E63653A002C74656D7065726174AD
:105C2A007572653A002C68756D69646974793A0011
:105C3A00B7A2CBCDCAA7B0DC0025732573257300A4
:105C4A0041542B434D47533D2200220D0A00415433
:105C5A002B434D47463D310D0A00B6A8D2E5CEC4C6
:105C6A00B1BE0041542B435343533D2247534D2267
:105C7A000D0A00CAE4C8EBBAC5C2EB00B7A2CBCD85
:095C8A00D6D0001A004F4B210096
:044A4A0041033100F3
:1043DC0090019B7401F0A37430F0A374C6F0A37425
:1043EC0038F07BF07A007D107C00E4FFFE12619ABD
:1043FC0090017FE4F0A37446F0A37422F0A3746ED2
:10440C00F07BDE7A007D147C007F117E00125C93C1
:10441C0090017FE4F0A3747DF0A37422F0A3746E7A
:10442C00F07BDE7A007D4B7C007F117E00125C936A
:10443C00900183E4F0A37431F0A3743CF0A374DA1C
:10444C00F07BCC7A007D157C007F127E001264A775
:10445C00900183E4F0A37431F0A3743CF0A374DAFC
:10446C00F07BCC7A007D4C7C007F127E001264A71E
:10447C007BFF7A5B79AA74FF90019CF0A3F0A37484
:10448C003CF0A374DAF07D027C007F0B7E00123FBF
:10449C00607BFF7A5B79B274FF90019CF0A3F0A370
:1044AC00743CF0A374DAF07D067C007F077E00126A
:1044BC003F6090019B74FFF0A3745BF0A374BFF09A
:1044CC00E4A3F0A3F0A374C6F0A37438F07B027AD3
:1044DC00007D087C007F027E001220F990019B7405
:1044EC00FFF0A3745BF0A374CEF0E4A3F0A3F0A3ED
:1044FC0074C6F0A37438F07B027A007D0B7C007FCD
:10450C00027E001220F990019B74FFF0A3745BF003
:10451C00A374DDF0E4A3F0A3F0A374C6F0A3743885
:10452C00F07B027A007D0D7C007F027E001220F968
:10453C0090019B74FFF0A3745BF0A374E8F0E4A308
:10454C00F0A3F0A374C6F0A37438F07B027A007D5C
:10455C000F7C007F027E001220F990019B74FFF00B
:10456C00A3745BF0A374F3F0E4A3F0A3F0A374C6FC
:10457C00F0A37438F07B027A007D117C007F027E00
:10458C00001220F97B017A03796390019C7403F08B
:10459C00A37497F0A374C6F0A37438F07D127C005A
:1045AC007F027E00123F6090019B74FFF0A3745C4D
:1045BC00F0A37400F0E4A3F0A3F074FFA3F0A3F055
:0F45CC007B027A007D137C00E4FFFE1220F922AF
:1059C900125D7A12624E90018074FFF0A3745CF04C
:1059D900A37407F0A374FFF0A3745CF0A37414F02C
:1059E900A37401F0A37403F0A37450F0A374FFF03F
:1059F900A3745CF0A37421F0A37401F0A37403F001
:105A0900A37459F0A374FFF0A3745CF0A3742FF08E
:105A1900A37401F0A37403F0A37456F07B017A0315
:105A290079041235877B017A03790490019C740308
:105A3900F0A37497F0A374C6F0A37438F07D097CC1
:105A4900007F027E00123F607B017A03795090014A
:105A59009C7403F0A37497F0A374C6F0A37438F090
:105A69007D0C7C007F027E00123F607B017A037906
:105A79005990019C7403F0A37497F0A374C6F0A322
:105A89007438F07D0E7C007F027E00123F607B013E
:105A99007A03795690019C7403F0A37497F0A37468
:105AA900C6F0A37438F07D107C007F027E00123F9F
:025AB900602269
:10676800900183E4F0A37431F0A374A0F0A374A69D
:10677800F07BCC7A007D4C7C007F127E001264A7EF
:1067880090019B74FFF0A3745CF0A3743AF074FF5B
:10679800A3F0A3F0A374A0F0A374A6F07B027A0080
:1067A8007D067C007F077E001220F97FD07E0712CD
:0367B8006A33221F
:103CB500E4900179F0A3F0A304F0A3742CF0900133
:103CC50083E4F0A37431F0A374EDF0A37484F07B66
:103CD500CC7A007D4C7C007F127E001264A77BFFAE
:103CE5007A5B79B274FF90019CF0A3F0A374EDF0B8
:103CF500A37484F07D067C007F077E00123F6090F0
:103D0500018074FFF0A3745CF0A37443F0A374FF07
:103D1500F0A3745CF0A3744AF0A37401F0A37403D8
:103D2500F0A37463F0A374FFF0A3745CF0A3745460
:103D3500F07B017A037932123587E490029BF07BA0
:103D4500FF7A5C795812691290029BE06401602445
:103D55007F647E00126A33900179E475F0011213D5
:103D650080FEC390017CE095F090017BE09E50D8E9
:103D750012676822E490029BF0900183F0A37431EE
:103D8500F0A374EDF0A37484F07BCC7A007D4C7CB9
:103D9500007F127E001264A790019B74FFF0A3744C
:103DA5005CF0A37464F074FFA3F0A3F0A374EDF0CA
:103DB500A37484F07B027A007D067C007F077E0079
:103DC5001220F97BFF7A5C796D12691290029BE0F3
:103DD500640160247F647E00126A33900179E47582
:103DE500F001121380FEC390017CE095F090017BF9
:103DF500E09E50D812676822E490029BF090018300
:103E0500F0A37431F0A374EDF0A37484F07BCC7A45
:103E1500007D4C7C007F127E001264A790019B748C
:103E2500FFF0A3745CF0A3747DF074FFA3F0A3F01E
:103E3500A374EDF0A37484F07B027A007D067C0008
:103E45007F077E001220F9E490029DF07B017A0342
:103E5500793212691290029DE0640160247F647ECC
:103E650000126A33900179E475F001121380FEC3E4
:103E750090017CE095F090017BE09E50D812676838
:103E850022E490029DF0900183F0A37431F0A374B5
:103E9500EDF0A37484F07BCC7A007D4C7C007F121E
:103EA5007E001264A790019B74FFF0A3745CF0A3DD
:103EB5007486F074FFA3F0A3F0A374EDF0A37484EB
:103EC500F07B027A007D067C007F077E001220F9D8
:103ED5007B017A0379041269127BFF7A5C798D1272
:103EE500691290029BE0640160247F647E00126A7F
:103EF50033900179E475F001121380FEC390017CC3
:103F0500E095F090017BE09E50D812676822E4901E
:103F1500029BF0900183F0A37431F0A37475F0A3B4
:103F25007446F07BCC7A007D4C7C007F127E0012BB
:103F350064A77BFF7A5C798F74FF90019CF0A3F0F6
:103F4500A37475F0A37446F07D067C007F077E00A0
:0A3F5500123F607FD07E07126A332E
:013F5F00223F
:1045DB00126C1B126C401243DC1259C9126C4CEF5B
:1045EB0070FA125385EF60F4E4900331F09003738B
:1045FB00E0FEA3E0FFD39411EE9400403CEF94DE79
:10460B00EE94005034A3E0FEA3E0FF9414EE94006C
:10461B004010EF9446EE940050089003317401F073
:10462B008017D3EF944BEE9400400EEF947DEE94F5
:10463B000050069003317402F0C3900374E0943081
:10464B00900373E094005038900376E0942A900323
:10465B0075E09401402A90019B74FFF0A3745CF009
:10466B00A37400F074FFA3F0A3F0A3E4F0A3741FF2
:10467B00F07B027A007D137C00E4FFFE1220F9220E
:10468B00900331E064017042900183F0A37431F028
:10469B00A37433F0A374D4F07BCC7A007D157C002B
:1046AB007F127E001264A77BFF7A5B79AA74FF905E
:1046BB00019CF0A3F0A37433F0A374D4F07D027CBF
:1046CB00007F0B7E00123F60804B900331E0640251
:1046DB0060030245E7900183F0A37431F0A37433B8
:1046EB00F0A374D4F07BCC7A007D4C7C007F127EDF
:1046FB00001264A77BFF7A5B79B274FF90019CF088
:10470B00A3F0A37433F0A374D4F07D067C007F0771
:10471B007E00123F60126C4CEF60FA900331E02484
:10472B00FE604D0460030245E71259C9900183E412
:10473B00F0A37431F0A3743CF0A374DAF07BCC7A61
:10474B00007D157C007F127E001264A77BFF7A5BD5
:10475B0079AA74FF90019CF0A3F0A3743CF0A374AE
:10476B00DAF07D027C007F0B7E00123F600245E792
:10477B00123CB5900183E4F0A37431F0A3743CF0C8
:10478B00A374DAF07BCC7A007D4C7C007F127E0028
:10479B001264A77BFF7A5B79B274FF90019CF0A344
:1047AB00F0A3743CF0A374DAF07D067C007F077EE7
:0B47BB0000123F600245E70245E722C4
:1060DD00CDF8C2E7D7A2B2E1CAA7B0DC002D2D2DB5
:1060ED002D2D2D2D2D2D2D2D2D2D2D2D2D2D2D2DD3
:1060FD002D2D2D2D2D2D2D2D2D2D2D002020202024
:10610D00B5E3BBF7C6C1C4BBBDF8C8EBCFB5CDB3C6
:10611D00BDE7C3E600CFB5CDB3C6F4B6AFD6D0A3B9
:10612D00ACC7EBC9D4B5C82E00CFB5CDB3C6F4B648
:10613D00AFD6D0A3ACC7EBC9D4B5C82E2E00CFB502
:10614D00CDB3C6F4B6AFD6D0A3ACC7EBC9D4B5C8E2
:10615D002E2E2E00CFB5CDB3C6F4B6AFD6D0A3AC90
:10616D00C7EBC9D4B5C82E2E2E2E00CDF8C2E7D759
:10617D00A2B2E1B3C9B9A600202020202020202002
:0D618D00BDF8C8EBCFB5CDB3BDE7C3E6004C
:10638500E4FDFC7F03FE12653190019B74FFF0A3D1
:106395007460F0A374DDF074FFA3F0A3F0E4A3F040
:1063A500A3F07B02FA7D03FC7F08FE1220F97FD063
:1063B5007E07126A337BFF7A6079EA74FF90019C4D
:1063C500F0A3F0E4A3F0A3F07D08FCFFFE123F600C
:1063D50090019B74FFF0A37461F0A37409F074FF3E
:1063E500A3F0A3F0E4A3F0A3F07B02FA7D0AFCFF7F
:1063F500FE1220F97BFF7A6079EA74FF90019CF028
:10640500A3F0E4A3F0A3F07D0CFCFFFE123F6012A5
:066415006C4CEF70FA224E
:10506F00900179E4F0A3741EF0126ADD126BA69022
:10507F00019B7401F0A37440F0E4A3F0A3F07BF064
:10508F00FAFDFCFFFE12619A90017974FFF5F012A0
:10509F00138045F07003025203E4FDFC7F03FE1200
:1050AF00653190019B74FFF0A37461F0A37422F03B
:1050BF0074FFA3F0A3F0E4A3F0A3F07B02FA7D0347
:1050CF00FC7F05FE1220F97FF47E01126A339001F6
:1050DF009B74FFF0A37461F0A37436F074FFA3F018
:1050EF00A3F0E4A3F0A3F07B02FA7D03FC7F05FE9F
:1050FF001220F97FF47E01126A3390019B74FFF046
:10510F00A37461F0A3744BF074FFA3F0A3F0E4A3B6
:10511F00F0A3F07B02FA7D03FC7F05FE1220F97FDE
:10512F00F47E01126A3390019B74FFF0A37461F057
:10513F00A37461F074FFA3F0A3F0E4A3F0A3F07BDA
:10514F0002FA7D03FC7F05FE1220F97FF47E011227
:10515F006A3390029CE064016003025097F0FDFCFB
:10516F007F03FE12653190019B74FFF0A37461F011
:10517F00A37478F074FFA3F0A3F0E4A3F0A3F07B83
:10518F0002FA7D03FC7F08FE1220F97FD07E071202
:10519F006A337BFF7A6079EA74FF90019CF0A3F089
:1051AF00E4A3F0A3F07D08FCFFFE123F6090019B8B
:1051BF0074FFF0A37461F0A37485F074FFA3F0A3E0
:1051CF00F0E4A3F0A3F07B02FA7D0AFCFFFE1220AD
:1051DF00F97BFF7A6079EA74FF90019CF0A3F0E409
:1051EF00A3F0A3F07D0CFCFFFE123F607FD07E0783
:0751FF00126A3322126385DE
:015206002285
:10694600E4F594F593F592F591F596F595F5B2F58E
:10695600B1F5B4F5B3F5CAF5C9F5CCF5CBF5E2F565
:10696600E1C2C11247C61200031269CC1254F612D4
:03697600506F223D
:1029D80000000000000000000000000000000000EF
:1029E8000000183C3C3C181818001818000000009B
:1029F8000063636322000000000000000000000084
:102A080000000036367F3636367F36360000000046
:102A18000C0C3E6361603E030343633E0C0C0000F4
:102A280000000000006163060C183363000000001A
:102A38000000001C36361C3B6E66663B000000003A
:102A4800003030306000000000000000000000008E
:102A580000000C18183030303018180C0000000036
:102A68000000180C0C060606060C0C1800000000E6
:102A78000000000042663CFF3C6642000000000087
:102A880000000000181818FF1818180000000000AF
:102A980000000000000000000000181818300000B6
:102AA80000000000000000FF00000000000000001F
:102AB80000000000000000000000181800000000DE
:102AC80000000103070E1C3870E0C0800000000001
:102AD80000003E6363636B6B6363633E000000004A
:102AE80000000C1C3C0C0C0C0C0C0C3F00000000F3
:102AF80000003E6303060C183061637F000000008D
:102B080000003E6303031E030303633E000000004E
:102B18000000060E1E3666667F06060F00000000DF
:102B280000007F6060607E030363733E0000000066
:102B380000001C3060607E636363633E0000000039
:102B480000007F630306060C0C181818000000002C
:102B580000003E6363633E636363633E00000000FE
:102B680000003E636363633F0303063C000000000C
:102B780000000000001818000000181800000000ED
:102B88000000000000181800000018181830000095
:102B9800000000060C18306030180C060000000019
:102BA8000000000000007E00007E00000000000021
:102BB8000000006030180C060C183060000000009F
:102BC80000003E6363060C0C0C000C0C00000000B7
:102BD80000003E63636F6B6B6E60603E0000000038
:102BE8000000081C366363637F63636300000000B2
:102BF80000007E3333333E333333337E000000002E
:102C080000001E33616060606061331E00000000D8
:102C180000007C36333333333333367C0000000016
:102C280000007F3331343C343031337F0000000002
:102C380000007F3331343C343030307800000000FD
:102C480000001E336160606F6363371D0000000081
:102C58000000636363637F63636363630000000072
:102C680000003C18181818181818183C0000000024
:102C780000000F06060606060666663C0000000011
:102C88000000733336363C363633337300000000A9
:102C980000007830303030303031337F00000000B1
:102CA800000063777F6B6363636363630000000006
:102CB80000006363737B7F6F6763636300000000DA
:102CC80000001C36636363636363361C0000000006
:102CD80000007E3333333E3030303078000000005F
:102CE80000003E6363636363636B6F3E0607000027
:102CF80000007E3333333E36363333730000000032
:102D080000003E6363301C060363633E000000005E
:102D18000000FFDB991818181818183C000000006C
:102D280000006363636363636363633E00000000E2
:102D3800000063636363636363361C08000000007C
:102D4800000063636363636B6B7F363600000000CB
:102D58000000C3C3663C18183C66C3C300000000EB
:102D68000000C3C3C3663C181818183C00000000D4
:102D780000007F6343060C183061637F0000000089
:102D880000003C30303030303030303C0000000043
:102D9800000080C0E070381C0E070301000000002E
:102DA80000003C0C0C0C0C0C0C0C0C3C0000000043
:102DB800081C36630000000000000000000000004E
:102DC800000000000000000000000000FF000000FC
:102DD80018180C00000000000000000000000000AF
:102DE80000000000003C46063E66663B000000000E
:102DF80000007030303C36333333336E000000004F
:102E080000000000003E63606060633E0000000058
:102E180000000E06061E36666666663B0000000069
:102E280000000000003E63637E60633E0000000017
:102E380000001C3632307C30303030780000000022
:102E480000000000003B666666663E06663C0000C1
:102E58000000703030363B333333337300000000EA
:102E680000000C0C001C0C0C0C0C0C1E00000000CC
:102E780000000606000E060606060666663C00000A
:102E880000007030303333363C36337300000000B6
:102E980000001C0C0C0C0C0C0C0C0C1E0000000090
:102EA80000000000006E7F6B6B6B6B6B0000000016
:102EB80000000000006E333333333333000000006A
:102EC80000000000003E63636363633E000000008F
:102ED80000000000006E333333333E30307800009A
:102EE80000000000003B666666663E06060F0000AE
:102EF80000000000006E3B333030307800000000E6
:102F080000000000003E63380E03633E000000002E
:102F180000000818187E181818181B0E000000006A
:102F280000000000006666666666663B00000000FA
:102F38000000000000636336361C1C080000000017
:102F480000000000006363636B6B7F3600000000C5
:102F5800000000000063361C1C1C366300000000E3
:102F6800000000000063636363633F03063C0000E6
:102F780000000000007F660C1830637F000000002E
:102F880000000E18181870181818180E0000000005
:102F98000000181818181800181818181800000039
:102FA8000000701818180E18181818700000000083
:102FB80000003B6E00000000000000000000000060
:102FC8000070D8D870000000000000000000000069
:102FD800CED20004400E50784808480840FFFE084A
:102FE8004008440A440C48183068220852088A2BC2
:102FF800061002B2E20089F200FF01F9FF00FC00AE
:0E300800FF0000070404020102040104070097
:104A4E004400AC000000005B0091303A2F535953E4
:104A5E0054454D2F464F4E542F5532475F473255D2
:104A6E002E42494E005900FB303A2F5359535445AC
:104A7E004D2F464F4E542F41534331322E464F4EFB
:104A8E000059015F303A2F53595354454D2F464F1D
:104A9E004E542F41534331362E464F4E0059014648
:104AAE00303A2F53595354454D2F464F4E542F41A4
:104ABE00534332342E464F4E0059012D303A2F5368
:104ACE00595354454D2F464F4E542F415343333275
:104ADE002E464F4E005900B0303A2F53595354457D
:104AEE004D2F464F4E542F47424B31322E464F4E8E
:104AFE0000590114303A2F53595354454D2F464FF8
:104B0E004E542F47424B31362E464F4E005900E23F
:104B1E00303A2F53595354454D2F464F4E542F472D
:104B2E00424B32342E464F4E005900C9303A2F5365
:104B3E00595354454D2F464F4E542F47424B333207
:054B4E002E464F4E0051
:1054F600E4900000F0A312151000000100900005D2
:105506001215100002A9009000091215100002B031
:105516000090000D121510000006069000111215DD
:10552600100002C000900015121510000008069029
:1055360000191215100002D00090001D121510005F
:105546000018069000211215100002EA00900025AE
:1055560012151000002006900029121510000310E5
:105566000090002D1215100008C46090003112152D
:1055760010000BE000900035121510000BB0809063
:1055860000391215100018000090003D1215100089
:105596001A4D20900041121510003260009000450F
:1055A600121510002EC2009000491215100061500D
:1055B6000090004D121510000017A2900051121510
:1055C6001000617000900055121510000017A2908F
:1055D60000591215100061900090005D1215100020
:1055E6000017A29000611215100061B000900065CE
:1055F600121510000017A29000691215100061D054
:105606000090006D121510000017A290007112157F
:10561600100061F000900075121510000017A2909E
:1056260000791215100062100090007D121510000E
:105636000017A290008112151000623000900085BC
:10564600121510000017A290008912151000625062
:0C5656000090008D121510000017A22219
:10002600FFFFFFFFFFFFFFFFFFFFFFFFFFFFFFFFDA
:10003600FFFFFFFFFFFFFFFFFFFFFFFFBEF77DEFA5
:10004600BAD6B6B5F39CB294B39CB29434A5F7BDB8
:10005600FBDE7DEFFFFFFFFFFFFFFFFFFFFFFFFF61
:10006600FFFFFFFFFFFFFFFFFFFFFFFFFFFFFFFF9A
:10007600FFFFFFFFFFFFFFFFFFFFFFFFFFFFFFFF8A
:10008600FFFFFFFFFFFFFFFFBEF7FBDEF39CCB5A30
:10009600C7390421821042104210410883184529AD
:1000A600C7390C6375AD3CE7BEF7FFFFFFFFFFFFE7
:1000B600FFFFFFFFFFFFFFFFFFFFFFFFFFFFFFFF4A
:1000C600FFFFFFFFFFFFFFFFFFFFFFFFFFFFFFFF3A
:1000D600FFFFFFFFFFFF3CE7B2940842C318821000
:1000E6000421452986318631863186314529042108
:1000F60082104108C3180842F39C3CE7FFFFFFFF4C
:10010600FFFFFFFFFFFFFFFFFFFFFFFFFFFFFFFFF9
:10011600FFFFFFFFFFFFFFFFFFFFFFFFFFFFFFFFE9
:10012600FFFFFFFFFBDE0C63C318C3184529C73961
:10013600084208420842084208420842C739C739FD
:1001460086318631042141088210CB5ABAD6FFFF88
:10015600FFFFFFFFFFFFFFFFFFFFFFFFFFFFFFFFA9
:10016600FFFFFFFFFFFFFFFFFFFFFFFFFFFFFFFF99
:10017600FFFFFBDECB5A82104529C73908420842E9
:10018600094A494A494A494A494A494A0842C739ED
:10019600C739C7398631452983180000C84138C692
:1001A600FFFFFFFFFFFFFFFFFFFFFFFFFFFFFFFF59
:1001B600FFFFFFFFFFFFFFFFFFFFFFFFFFFFFFFF49
:1001C6007DEF8E7382104529C7390842094A8A5243
:1001D6003084CF7B8A52494A4A52494ACB5ACF7B0E
:1001E6000C630842C73986314529C3180000494ABD
:1001F600BAD6FFFFFFFFFFFFFFFFFFFFFFFFFFFF77
:10020600FFFFFFFFFFFFFFFFFFFFFFFFFFFFFFFFF8
:10021600F39CC3180421C7390842494A494A7294D3
:100226007DEF7DEFB2944A52494A8A5275ADBEF7C8
:10023600BAD64D6BC739C73986314529C318410827
:10024600CF7B7CE7FFFFFFFFFFFFFFFFFFFFFFFF07
:10025600FFFFFFFFFFFFFFFFFFFFFFFFFFFFBAD616
:1002660008428210C7390842494A494A8E73FBDE62
:10027600FFFFBEF7BAD68E73084230843CE77DEFA7
:10028600FFFFB6B5494AC7398631452904214108D9
:100296004529B6B5FFFFFFFFFFFFFFFFFFFFFFFF8B
:1002A600FFFFFFFFFFFFFFFFFFFFFFFFBEF7718CA2
:1002B600410845290842494A494A4A52B294BEF77A
:1002C600BEF7B294CF7BCF7B494AB6B5F39C0C639D
:1002D60038C6BAD60C638739C73986314529C3185B
:1002E600410830847DEFFFFFFFFFFFFFFFFFFFFFA9
:1002F600FFFFFFFFFFFFFFFFFFFFFFFF3CE7CB5ABC
:100306004108C7390842494A4A528A52F39CFFFFBC
:100316007DEFC739C3180C63CB5AB6B5B294CB5A26
:1003260075ADFAD64D6B8739C73986314529042113
:1003360041088A5279CEFFFFFFFFFFFFFFFFFFFF55
:10034600FFFFFFFFFFFFFFFFFFFFFFFF38C68631FE
:100356000421C841494A494A4A52494AB18CBEF722
:10036600BEF7B294CF7BCF7B494A74A57DEF7CE77D
:10037600BEF779CE0C63C739C739863145290421C2
:100386008210452975ADBEF7FFFFFFFFFFFFFFFF98
:10039600FFFFFFFFFFFFFFFFFFFFFFFF34A58210F8
:1003A60086310842494A494A8A52494A4D6BBAD669
:1003B600FFFFFFFF79CE0D63C739CF7B7DEFFFFFD0
:1003C600FFFF75AD08428631C73986314529452973
:1003D600C318C318B2947DEFFFFFFFFFFFFFFFFFB7
:1003E600FFFFFFFFFFFFFFFFFFFFBEF7B28C4108D5
:1003F600C7390842494A494A8A528A524A4AD07BF0
:100406007AC67BBE906BC9398831C939B384BBC6FD
:10041600F8B5CC5A8631C739C739863145294529B9
:10042600C420410830843CE7FFFFFFFFFFFFFFFFCA
:10043600FFFFFFFFFFFFFFFFFFFF3CE78A4AC310F6
:10044600C7390842494A494A4A4A4A42093A084A81
:10045600096B497BC67A05834683C57AC672097BD2
:10046600485A873188218829863186314529452988
:10047600042141084A4ABAD6FFFFFFFFFFFFFFFFEC
:10048600FFFFFFFFFFFFFFFFFFFFF7C5825005419C
:10049600C7290842494A4A42494A097B889BC6B34A
:1004A60021D4A0DCE1E461ED61ED21EDA0E420DCE6
:1004B60080CB43ABC482065A4721462945290429E5
:1004C600041982108218F39C7DEFFFFFFFFFFFFFE8
:1004D600FFFFFFFFFFFFFFFF7DEF4D9300A082B8F8
:1004E600C7310932494A867A43C36BEDF4F6EBFD10
:1004F60020FD20FD60FDA0FDA0FD60FD60FD20FD4E
:10050600E0FCA0FC60F4C1DB839AC54945290419C7
:10051600C42082380050CB6ABAD6FFFFFFFFFFFF28
:10052600FFFFFFFFFFFFFFFFFBEE04A100C000F08F
:10053600C3A0C8414942059B20FCA4FC69FDE8FD17
:1005460063FD20FD60FD60FD60FD20FD20FDE0FCFB
:10055600E0FCA0FC60FC20FC41D3C5494519C43829
:10056600826841880070495A79CEFFFFFFFFFFFF7E
:10057600FFFFFFFFFFFFFFFFFBF682C000D086C133
:1005860046F141C8457989528862866AC67AC4BBF3
:10059600E1FC60FD60FDA0FDA0FD60FD60FDE0FCEE
:1005A60060E403938472446AC5414529C35841A84F
:1005B600409800B000600C6B79CEFFFFFFFFFFFF95
:1005C600FFFFFFFFFFFF7DEFCE83828800F8C4D8D0
:1005D6000CF38AFA82E882B04569C7510842083AA4
:1005E600865A839BA2BC22CD21CDA1C422B4C47A53
:1005F600063A862945290531C450419000C000A815
:1006060000A000A800304A4ABAD6FFFFFFFFFFFF4E
:10061600FFFFFFFF7DEF8E73C318053982A800F830
:10062600C3F84DFB4DFBC7F9C3F082D8C3B00481B4
:1006360045614651864986494641454145414541C0
:1006460005490461829041B000D000C800A800A806
:1006560000B8415882108210B294BEF7FFFFFFFF28
:10066600FFFFBEF7CF7B82100421862986410499BD
:1006760040E841F886F9CBFA49FA82F800F800F02A
:1006860000E841D841D041C041C041C041C041C845
:1006960000D000E000E000D800D000B800A84188F3
:1006A6008248821082100000452979CEFFFFFFFFA5
:1006B600BEF7F39C8210C31845298631C731307CBA
:1006C600F3DC86E100F000F841F841F800F800F8A4
:1006D60000F800F800F800F800F800F800F800F854
:1006E60000E800E000E000D800C841A08A9A0C6348
:1006F600041182108210410800004D6B7DEFFFFF50
:10070600FBDE08424210452986318631494A38BE09
:10071600FFFF38D686A900C800E000F000F800F810
:1007260000F800F800F800F800F800F800F000F013
:1007360000E800E000D0C3988A8AB2A4BAC6F7B52A
:10074600084241088210410800004529F7BDFFFF15
:10075600718C410804214529863186310C633CE7BA
:10076600FFFF79D646B900E042C882A882B041D8D8
:1007760082E882F041E841E841E841F041E841D8A9
:1007860004C108924D8B34A5FBC6FBD6BACE3CE716
:100796003084C3184108410800004108CF7B7DEF33
:1007A600494A000004214529463186313084FFFF3D
:1007B600FFF7F7DD09DA83F801F042C08298499A1B
:1007C600F3B4F3CC71BC8EBB8EBB30BC71BCF3BC36
:1007D600B6BDFBCEBEE77DE73BDFBAD679CEFBDE04
:1007E60075AD86314108410800000000494AFBDE2C
:1007F600042141080421452945298739B294FFFF80
:10080600BEF734DD0CEB09FA00F001D800D88BD224
:100816007DE7FFFFFFFFFFFFFFFFFFFFFFFFFFFF7C
:10082600FFFFBEFF7DEFFBDEFBDEBAD679CEBAD682
:1008360078C6C7390000410800000000C73979CEE4
:1008460000008210C318042105298631B39CFFFFDE
:10085600FFF775DDC7E9C7F901F801F000E849E2DD
:10086600FBEEFFFFFFFFFFFFFFFFFFFFFFFFFFFFA7
:10087600FFFFBEF77DEFFBDEFBDEBAD679CEBAD63A
:10088600B9CE08420000000000000000C73938C693
:100896000000821082100421042145293084FFFFC4
:1008A600FFFF38DEC4D000F001F800F800F008D2EF
:1008B600FBE6FFFFFFFFFFFFFFFFFFFFFFFFFFFF5F
:1008C600FFFFBEF77DEFFBDEBAD679CE79CEBAD67C
:1008D60079CEC7394108000000000000863138C6CD
:1008E60000000000C318CB5A8631C318CB5A7DEFDF
:1008F600FFFF7DEFCFBBC3B041D041D082B84DB32F
:100906007DE7FFFFFFFFFFFFFFFFFFFFFFFFFFFF8B
:10091600BEF7BEF73DEFFBDEBAD679CE79CEFAD674
:10092600F7BD04218631042100000000863138C657
:100936008631C318CB5A75ADCF7B41088631F7BDDA
:10094600FFFFFFFFBEEF74B5309C309C72A4BBD690
:10095600FFFFFFFFFFFFFFFFFFFFFFFFFFFFFFFFA1
:10096600BEF77DEF3CE7FBDEBAD679CE79CE3CE723
:10097600718C81080C63CF7B821000008A5238C6C6
:1009860075AD718CB6B53CE7FBDEC7390000CF7399
:10099600FFFFFFFFFFFFFFFFFFFFFFFFFFFFFFFF61
:1009A600FFFFFFFFFFFFFFFFFFFFFFFFFFFFBEF79A
:1009B6007DEF7DEF3BDFFAD679CE79CEFBDEB9CE81
:1009C600C739C420718CBAD6718CCB5AB294BAD6B8
:1009D600FFFF7DEF7DEFFFFFFFFFB6B54629051947
:1009E60075A5FFFFFFFFFFFFFFFFFFFFFFFFFFFFF5
:1009F600FFFFFFFFFFFFFFFFFFFFFFFFFFFFBEF74A
:100A06007DEF3CE7FBDEBAD679CEBAD6FCDE4E6386
:100A160042080C63F7BDBEF7FFFFFBDEFBDEBEF749
:100A2600FFFFFFFFFFFFFFFFFFFFFFFFF49C042117
:100A36000521B6A5FFFFFFFFFFFFFFFFFFFFFFFF3B
:100A4600FFFFFFFFFFFFFFFFFFFFBEF7BEF77DEFD4
:100A56003CE7FBDEBAD679CEFBDEBBD6D173831874
:100A66008639349DBDEFFFFFFFFFFFFFFFFFFFFF4E
:100A7600FFFFFFFFFFFFFFFFBEFF35D6EBCC43B303
:100A860040510519F58CBEEFFFFFFFFFFFFFFFFF8B
:100A9600FFFFFFFFFFFFBEF7BEF77DEF7DEF3CE7F1
:100AA600FBDEBADEBAD63CDF3ABE4F63824940A3CC
:100AB60023B4CC833ABEFFFFFFFFFFFFFFFFFFFF1C
:100AC600FFFFFFFFFFFFBFF7B5BD829220F4A0FC3A
:100AD60060E4408284418F6B77AD3DE7FFFFFFFF07
:100AE600FEFFBEF7BEF7BEF77DEF7DEF3CE7FBDE10
:100AF600FBDE3DE7BBCE369D0B6B416A60C420FE34
:100B060060F5008BC76A38C6BEF7FFFFFFFFFFFF21
:100B1600FFFFFFFFFFFF7DEF4B7B80B2A0FCA0FC39
:100B2600E0FCE0FCC0CBC18A45624D6BB394F7BDD7
:100B36003DDFFFF7FFFFBEF77DEF7DEF7DE73DDF92
:100B4600BAC675A58D7B847A40B3E0ECE0FDE0FD86
:100B560060F520E5A0D40A6BFBDEFFFFFFFFFFFF79
:100B6600FFFFFFFFFFFF7DEFCC9340EB60FCA0FC97
:100B7600E0FC20FD60FD20F5A0D4C0BB429B458B68
:100B86006B9CAE9C718CB394339D34A5F2A4F0B4E7
:100B9600CA9B049B40BB20E420FDA0FDA0FDE0FD18
:100BA600E0FDE0FD20C4885A38BEFFFFFFFFFFFFCF
:100BB600FFFFFFFFFFFFFFFF78D646AB40DB20F4C9
:100BC60060FCA0FCE0FC60FDA0FD60FD20F5A0DC63
:100BD600C0B3C05186290D638F7B0D5BC74101826F
:100BE60000C3C0E360FCA0FCE0FCE0FC60F560F53F
:100BF60020E5809B8662308479CEFFFFFFFFFFFFF2
:100C0600FFFFFFFFFFFFFFFFFFFF38C62D9C059389
:100C160043A382B3C2BBC2BB22B482A34293C37AAC
:100C260085620B637184B6B579CE79C6B5AD70941D
:100C36004A8B06830493049B439B439B4393048301
:100C460008738D73B39479CE7DEFFFFFFFFFFFFF2F
:100C5600FFFFFFFFFFFFFFFFFFFFFFFF3CDF38BE89
:100C660075B533A533A5F39CF39CF39CF394F39CE1
:100C760035A5F8BDFBDEBEF7FFFFFFFFFFFF7EEFEA
:100C8600BBD6F8BDB6AD75AD34A5339D349D35A53F
:100C9600B7AD79C63CE7BEF7FFFFFFFFFFFFFFFFDB
:044B530041038A0090
:0B6C05008F80AF058FA0C2CBD2CB2246
:066C4600D2CA126C052207
:0C6BED00AD07AC06D2CAECFF126C05220A
:0C6BF900AD07AC06C2CAECFF126C05220E
:10670600900293EEF0A3EFF0A3ECF0A3EDF07F2A56
:106716007E00126BF9900293E0FF126BEDE0FEA390
:10672600E0FF126BEDEAFF7E00126BEDAE02AF03E7
:10673600126BED7F2B7E00126BF9A3E0FF126BED5F
:10674600E0FEA3E0FF126BED900299E0FF7E0012DF
:106756006BEDE0FEA3E0FF126BED7F2C7E00126B6B
:02676600F92216
:08663400900179EEF0A3EFF0F4
:10663C009002997401F0A3743FF07BEF7A00E4FDB3
:10664C00FCFFFE12670690017B1215100000000083
:10665C007F007E2C7D017C0090017BE0F8A3E0F9AB
:10666C00A3E0FAA3E0FBC31214E0502A900179E0F6
:10667C00FEA3E0FF126BEDA3E0FCA3E0FDA3E0FEA4
:10668C00A3E02401FFE43EFEE43DFDE43CFC90016C
:06669C007B12150480BA18
:0166A20022D5
:10619A00900199EAF0A3EBF0900195EEF0A3EFF0ED
:0661AA00A3ECF0A3EDF0F0
:1061B000C006C007A3E0FEA3E0FF900195E0FAA3AC
:1061C000E02FFFEA3ECF24FFFBEF34FFFA90019B64
:1061D000E0FEA3E0FF900197E0F8A3E02FFFE83E88
:1061E000CF24FFCF34FF900299F0A3EFF0D007D077
:1061F0000612670690019F12151000000000900122
:1062000099E0FEA3E0FFA3E0FCA3E0FD1215879058
:10621000019FE0F8A3E0F9A3E0FAA3E0FBC31214A6
:10622000E0502A90019DE0FEA3E0FF126BEDA3E099
:10623000FCA3E0FDA3E0FEA3E02401FFE43EFEE4B6
:0D6240003DFDE43CFC90019F12150480B16F
:01624D00222E
:0E65310090017BEEF0A3EFF0A3ECF0A3EDF0F1
:10653F0090017CE0C4F8540FC868FD90017BE0C463
:10654F0054F048FCED240FFEE43C900299F0A3CEEA
:10655F00F07BEF7A00E4FFFE12670690017F1215C1
:10656F001000000000E4FF7E0FFDFC90017FE0F8BB
:10657F00A3E0F9A3E0FAA3E0FBC31214E0502A90C2
:10658F00017DE0FEA3E0FF126BEDA3E0FCA3E0FDB5
:10659F00A3E0FEA3E02401FFE43EFEE43DFDE43C66
:0965AF00FC90017F12150480BC70
:0165B80022C0
:106AF6007594FFE4F5937592FFF591439687539548
:086B06007843B28053B17F22F5
:1047C600126AF6C2ED7F057E00126A33D2EDD2EC94
:1047D600D2E8D2CB7F057E00126A33C2EC7FCF7E51
:1047E60000126BF9E4FF126BED7FC1126BED7F30A7
:1047F600126BED7FED126BF97F64126BED7F031286
:104806006BED7F12126BED7F81126BED7FCB126B1E
:10481600F97F39126BED7F2C126BEDE4FF126BED15
:104826007F34126BED7F02126BED7FEA126BF9E4B7
:10483600FF126BEDE4FF126BED7FE8126BF97F85DB
:10484600126BED7F10126BED7F79126BED7FC0124C
:104856006BF97F23126BED7FC1126BF97F11126B1F
:10486600ED7FC2126BF97F11126BED7FC5126BF9EA
:104876007F3D126BED7F30126BED7FC7126BF97FB8
:10488600AA126BED7F3A126BF97F55126BED7F36EC
:10489600126BF97F08126BED7FB1126BF9E4FF1210
:1048A6006BED7F11126BED7FB6126BF97F0A126BFF
:1048B600ED7FA2126BED7FF2126BF9E4FF126BED46
:1048C6007FF7126BF97F20126BED7FF1126BF97F88
:1048D60001126BED7F30126BED7F26126BF97F01B3
:1048E600126BED7FE0126BF97F0F126BED7F3F12BB
:1048F6006BED7F2F126BED7F0C126BED7F10126B41
:10490600ED7F0A126BED7F53126BED7FD5126BEDC7
:104916007F40126BED7F0A126BED7F13126BED7FFA
:1049260003126BED7F08126BED7F03126BEDE4FF54
:10493600126BED7FE1126BF9E4FF126BEDE4FF12EF
:104946006BED7F10126BED7F03126BED7F0F126B19
:10495600ED7F05126BED7F2C126BED7FA2126BEDD6
:104966007F3F126BED7F05126BED7F0E126BED7FB5
:104976000C126BED7F37126BED7F3C126BED7F0FE8
:10498600126BED7F11126BF97F50126A337F297E0D
:0C49960000126BF974FFFFFE1266342261
:1058CA009001ACEAF0A3EBF09001A8EEF0A3EFF0A0
:0658DA00A3ECF0A3EDF0C9
:1058E000C006C007A3E0FEA3E0FF9001A8E0FAA372
:1058F000E02FFFEA3ECF24FFFBEF34FFFA9001AE2A
:10590000E0FEA3E0FF9001AAE0F8A3E02FFFE83E4D
:10591000CF24FFCF34FF900299F0A3EFF0D007D04F
:1059200006126706E49001B8F09001AEE0FCA3E037
:10593000FD9001ACE0FEA3E0FF121303EF7803CE6D
:10594000C313CE13D8F9FF9001B8E0C39FE49E5073
:10595000779001B77408F09001B7E0FFD39400404E
:10596000549001B0E0FBA3E0FAA3E0F91212ABFD02
:105970007C00EF14FF74017E00A807088005C33384
:10598000CE33CED8F9FFEE5CFEEF5DD39400EE642B
:10599000809480400D9001B3E0FEA3E0FF126BED18
:1059A000800B9001B5E0FEA3E0FF126BED9001B714
:1059B000E014F080A29001B1E475F00112136A9036
:0859C00001B8E004F0025929CE
:0159C80022BC
:103F6000900195EEF0A3EFF0A3ECF0A3EDF0A3EB3E
:073F7000F0A3EAF0A3E9F061
:103F7700E49001A1F09001A7741EF09001A67414BB
:103F8700F0E49001A0F0900199E0FBA3E0FAA3E030
:103F9700F9126B809001A0E0C39FEE6480F87480F3
:103FA7009840030241B7900199E0FBA3E0FAA3E030
:103FB700F99001A0E0FFF5827583001212C4900109
:103FC700A2F08F82758300A31212C49001A3F09010
:103FD70001A0E0900196E02FFF900195E03400FEEC
:103FE7009001A1E07C002FFBEC3EFA9001A7E0FDD9
:103FF700AF03AE021213159001A4EDF09001A7E0F4
:10400700FD7C00AF03AE02121315900198E02FFF5D
:10401700900197E03EFE9001A6E0FD7C001213158B
:104027009001A5EDF09001A2E0FBC394805066904B
:1040370001A4E075F008A4FFAEF0C006C007A3E036
:1040470075F010A4FDACF0EB75F010A424D8F9744A
:104057002735F0FA9001B074FFF0A3EAF0A3E9F076
:104067009001AEE4F0A37410F090019CE0FFA3E090
:104077009001B3CFF0A3EFF090019EE0FFA3E09093
:1040870001B5CFF0A3EFF0D007D0067B087A001276
:1040970058CA0241AE9001A7E014FF9001A4E0FEC8
:1040A7006F705EEE75F008A4FFAEF0C007A3E07571
:1040B700F010A4FDACF09001AEE4F0A37410F0A3EF
:1040C70074FFF0A37429F0A374D8F090019CE0FF6B
:1040D700A3E09001B3CFF0A3EFF090019EE0FFA320
:1040E700E09001B5CFF0A3EFF0D0077B087A00127C
:1040F70058CA9001A1E004F09001A0E014F0024139
:10410700AEE4FBEB75F023A424D8F582E4342FF555
:1041170083E493FF9001A2E0B50718EB75F023A4A1
:1041270024D9F582E4342FF583E493FF9001A3E0CB
:104137006F60050BEBB401CBEBC3940150639001A7
:10414700A4E075F008A4FFAEF0C006C007A3E075B1
:10415700F010A4FDACF0EB75F023A424DBF9742F69
:1041670035F0FA9001B074FFF0A3EAF0A3E9F090FC
:1041770001AEE4F0A37410F090019CE0FFA3E0907F
:1041870001B3CFF0A3EFF090019EE0FFA3E0900111
:10419700B5CFF0A3EFF0D007D0067B107A00125806
:1041A700CA9001A0E004F09001A0E004F0023F8D66
:1041B7009001A5E004FF90038AF09001A6E0FEEFCE
:0941C7008EF08490038AE5F0F00B
:0141D00022CC
:1065B9009001B3EEF0A3EFF0A3ECF0A3EDF0A90383
:1065C900E9D3940040649001B5E0FCA3E0FDE9FF44
:1065D9007E009001B3E0FAA3E02FFFEE3ACF24FF4B
:1065E900FBEF34FFFAE9FFA3E0F8A3E02FFFEE3851
:1065F900CF24FFCF34FF900299F0A3EFF09001B3BD
:10660900E0FEA3E0FF126706E4FBE9F5F0A4FFEB67
:10661900C39FE5F06480F8748098500E9001B8E04B
:0A662900FEA3E0FF126BED0B80E012
:016633002244
:0E41D100900195EEF0A3EFF0A3ECF0A3EDF05B
:1041DF00E49001A1F0A3F0A3F0A3F0900195E0FE0D
:1041EF00A3E0FFC3EB9FFFEA9E9001A5F0A3EFF0C2
:1041FF00900197E0FAA3E0FBC390019CE09BFE9037
:10420F00019BE09A9001A7F0A3CEF0900195E0FFFB
:10421F00A3E09001AFCFF0A3EFF0A3EAF0A3EBF090
:10422F009001A5E0FEA3E0FFD39400EE648094809C
:10423F00400A9001ABE4F0A304F080279001A7E0BF
:10424F007002A3E070089001ABF0A3F0801574FF2B
:10425F009001ABF0A3F0C3E49FFFE49E9001A5F0A3
:10426F00A3EFF09001A7E0FEA3E0FFD39400EE646C
:10427F00809480400A9001ADE4F0A304F08021EF18
:10428F004E70089001ADF0A3F0801574FF9001AD52
:10429F00F0A3F0C3E49FFFE49E9001A7F0A3EFF01B
:1042AF009001A7E0FEA3E0FF9001A5E0FCA3E0FDD5
:1042BF00D39FEE6480F8EC648098400A9001A9ECDB
:1042CF00F0A3EDF080089001A9EEF0A3EFF0E490D9
:1042DF00019FF0A3F09001A9E0FEA3E0FFD39001AE
:1042EF00A0E09F90019FE09E40030243DB9001AF4F
:1042FF00E0FEA3E0FFA3E0FCA3E0FD90019DE0FB47
:10430F00A3E09001B8CBF0A3EBF07B011265B9905D
:10431F0001A5E0FEA3E0FF9001A2E02FF09001A124
:10432F00E03EF09001A7E0FEA3E0FF9001A4E02F94
:10433F00F09001A3E03EF09001A9E0FEA3E0FF9012
:10434F0001A1E0FCA3E0FDC39FEE6480F8EC648064
:10435F009840269001A9E0A3E0ED9FFFEC9E90010D
:10436F00A1F0A3EFF09001ABE0FEA3E0FF9001B04E
:10437F00E02FF09001AFE03EF09001A9E0FEA3E046
:10438F00FF9001A3E0FCA3E0FDC39FEE6480F8EC77
:10439F0064809840269001A9E0A3E0ED9FFFEC9E7A
:1043AF009001A3F0A3EFF09001ADE0FEA3E0FF902A
:1043BF0001B2E02FF09001B1E03EF09001A0E004D7
:0C43CF00F0700690019FE004F00242E450
:0143DB0022BF
:105C930090017DEAF0A3EBF0900179EEF0A3EFF031
:105CA300A3ECF0A3EDF0C007A3E0FAA3E0FB90019F
:105CB3007BE0FFA3E090019BCFF0A3EFF090018185
:105CC300E0FFA3E090019DCFF0A3EFF0D0071241D6
:105CD300D1900179E0FAA3E0FBFFAE02C007A3E095
:105CE300FCA3E0FD90017FE0FFA3E090019BCFF0D8
:105CF300A3EFF0900181E0FFA3E090019DCFF0A31B
:105D0300EFF0D0071241D190017FE0FCA3E0FD90BA
:105D1300017DE0FAA3E0FBA3E0FFA3E090019BCFAA
:105D2300F0A3EFF0900181E0FFA3E090019DCFF09D
:105D3300A3EFF0900179E0FEA3E0FF1241D19001BF
:105D43007DE0FAA3E0FBFFAE02C00790017BE0FC1D
:105D5300A3E0FD90017FE0FFA3E090019BCFF0A3C0
:105D6300EFF0900181E0FFA3E090019DCFF0A3EF5E
:075D7300F0D0071241D1221C
:1064A700900181EAF0A3EBF090017DEEF0A3EFF00D
:0664B700A3ECF0A3EDF0E0
:1064BD00C006C007A3E0FEA3E0FF90017DE0FAA3B4
:1064CD00E02FFFEA3ECF24FFFBEF34FFFA9001836C
:1064DD00E0FEA3E0FF90017FE0F8A3E02FFFE83E90
:1064ED00CF24FFCF34FF900299F0A3EFF0D007D067
:1064FD0006126706E4FBFA900183E0FCA3E0FD9031
:10650D000181E0FEA3E0FF121303C3EB9FEA9E504F
:10651D0012900185E0FEA3E0FF126BED0BBB0001B5
:03652D000A80D40D
:016530002248
:104B570042037B1E9F42037D15DF42036F005D42C8
:044B67000371079D32
:066C4C00A2C0E433FF22A8
:0700030043B38143CC0E2240
:106B0E00E4FEEF25E0FF92EBC2E9000000D2E900BF
:076B1E0000000EEEB408EBCD
:016B2500224D
:1069F000E4FDFFFEEF25E0FFEE33FED2E9000000EC
:106A0000C2E900000030C704EF4401FF0DEDB40CF3
:016A1000E3A2
:016A11002262
:0A6C1000C2EA126B0E1269F0D2EA1C
:016C1A002257
:025F3B00AC07B1
:105F3D00E49001CAF0A3F0F9AF04126C10E925E06A
:105F4D0024ACF582E43401F583EEF0A3EFF009E91A
:105F5D00B40FE5E4F9E904FFEFC3940F506EEF259C
:105F6D00E024ACF582E43401F583E0FCA3E0FDE927
:105F7D0025E024ACF582E43401F583E0FAA3E0FBDF
:105F8D00D39DEA9C40439001CCEAF0A3EBF0EF25C2
:105F9D00E024ACF582E43401F583E0FCA3E0FDE9F7
:105FAD0025E024ACF582E43401F583ECF0A3EDF0AB
:105FBD009001CCE0FCA3E0FDEF25E024ACF582E4FC
:105FCD003401F583ECF0A3EDF00F808C09E9640E3C
:105FDD0070837905E925E024ACF582E43401F5837D
:105FED00E0FEA3E0FF9001CBE02FF09001CAE03E70
:105FFD00F009E9B40ADE9001CAE0FEA3E0FF7C00DF
:0B600D007D05121315A3EEF0A3EFF0C9
:016018002265
:0B66A3009001A4EBF0A3EAF0A3E9F0E3
:1066AE007FD0125F3B9001AAEEF0A3EFF07F901225
:1066BE005F3BC39001ABE094649001AAE09400406C
:1066CE0008EF9464EE940050037F00229001AAE03C
:1066DE00F9A3E0FD9001A4E0FBA3E0FAA3E0C98DCD
:1066EE00F01213969001A7E0FBA3E0FAA3E0F9EEF7
:0766FE008FF01213967F01DB
:016705002271
:0B579900900196EBF0A3EAF0A3E9F00A
:1057A4009001A77401F0A37401F0A3749EF07B012F
:1057B4007A01799C1266A3EF7002FF229001A7740C
:1057C40001F0A37401F0A374A2F07B017A0179A023
:1057D4001266A3EF7002FF2290019CE0FEA3E0FF9B
:1057E4009001A0E0FCA3E0FDD39FEC9E500EED24BD
:1057F40014FDE43CFCC3EF9DEE9C402A9001A0E024
:10580400FEA3E0FF90019CE0FCA3E0FDD39FEC9E8F
:1058140040030258C7ED2414FDE43CFCC3EF9DEEA5
:105824009C40030258C790019EE0FEA3E0FF900154
:10583400A2E0FCA3E0FDD39FEC9E500EED2414FDEA
:10584400E43CFCC3EF9DEE9C40249001A2E0FEA347
:10585400E0FF90019EE0FCA3E0FDD39FEC9E50632B
:10586400ED2414FDE43CFCC3EF9DEE9C50559001E7
:10587400A0E0FEA3E0FF90019DE02FFF90019CE0DB
:105884003EC313F9EF13FF900196E0FBA3E0FAA3E4
:10589400E0C98FF01213969001A2E0FEA3E0FF90FE
:1058A400019FE02FFF90019EE03EC313F9EF13FF29
:1058B400900199E0FBA3E0FAA3E0C98FF0121396DC
:0558C4007F01227F00BE
:0158C90022BC
:10538500E4900195F07B0190019904F0A37403F07A
:10539500A37479F07A037977125799EF7003025461
:1053A500F09001957401F090036FE0FEA3E0FFD348
:1053B500900378E09F900377E09E403EAB07AA06F6
:1053C500E4E0FEA3E0FFE4EF9BFFEE9AFEE4940029
:1053D500FDE49400FCE47BE87A03F9F81213B5C008
:1053E50006C00790037BE0FEA3E0FFFBAA06E4F9F5
:1053F500F8D007D0061214408047900377E0FEA34B
:10540500E0FFFBAA06E490036FE0FEA3E0FFE4C320
:10541500EF9BFFEE9AFEE49400FDE49400FCE47B30
:10542500E87A03F9F81213B5C006C00790037BE0CC
:10543500FEA3E0FFFBAA06E4F9F8D007D006121494
:1054450040900373EEF0A3EFF0900371E0FEA3E04C
:10545500FFD390037AE09F900379E09E403EAB072F
:10546500AA06E4E0FEA3E0FFE4EF9BFFEE9AFEE46C
:105475009400FDE49400FCE47BE87A03F9F8121348
:10548500B5C006C00790037DE0FEA3E0FFFBAA06BA
:10549500E4F9F8D007D0061214408047900379E06C
:1054A500FEA3E0FFFBAA06E4900371E0FEA3E0FF84
:1054B500E4C3EF9BFFEE9AFEE49400FDE49400FC48
:1054C500E47BE87A03F9F81213B5C006C007900328
:1054D5007DE0FEA3E0FFFBAA06E4F9F8D007D006BD
:1054E500121440900375EEF0A3EFF0900195E0FFE4
:0154F5002294
:106019000000000000000000000000000000000077
:106029000000000000000000000000000000000067
:106039000000000000000000000000000000000057
:106049000000000000000000000000000000000047
:106059000000000000000000000000000000000037
:106069000000000000000000000000000000000027
:106079000000000000000000000000000000000017
:106089000000000000000000000000000000000007
:1060990000000000000000000000000000000000F7
:1060A90000000000000000000000000000000000E7
:1060B90000000000000000000000000000000000D7
:1060C90000000000000000000000000000000000C7
:0460D90000000000C3
:1052070090027EECF0A3EDF0A3EAF0A3EBF090029E
:065217007CEEF0A3EFF0B5
:10521D00E490028FF0A3F0C006C00790027EE0FC80
:10522D00A3E0FDA3E0FEA3E0FF90027CE0FAA3E083
:10523D002FFFEA3ECF24FFFBEF34FFFA900282E00E
:10524D00FEA3E0FF90027EE0F8A3E02FFFE83ECF43
:10525D0024FFCF34FF900299F0A3EFF0D007D006D2
:10526D00126706900280E0FCA3E0FDAE047803CE49
:10527D00C313CE13D8F9FFED540760067C007D01F2
:10528D0080047C007D00EF2DFFEE3CFE900282E05D
:10529D00FCA3E0FD121303900291EEF0A3EFF0E4F6
:1052AD0090028DF0A3F0900291E0FEA3E0FFC39079
:1052BD00028EE09F90028DE09E4003025384E490A5
:1052CD00028BF0A3F0900284E0FBA3E0FAA3E0F9D7
:1052DD001212ABFD7C0090028BE0A3E0FF74807E88
:1052ED0000A807088006CEA2E713CE13D8F8FFEE6C
:1052FD005CFEEF5D4E600D900287E0FEA3E0FF12B5
:10530D006BED800B900289E0FEA3E0FF126BED9038
:10531D000290E004F0700690028FE004F09002809D
:10532D00E0FCA3E0FD90028FE0FEA3E0FF12131559
:10533D00ED4C700890028FF0A3F0802090028CE06D
:10534D0004F0700690028BE004F0C390028CE094A0
:10535D000890028BE0940050030252D2900285E433
:10536D0075F00112136A90028EE004F0700690023F
:07537D008DE004F00252B3C1
:015384002206
:1020F900900195EEF0A3EFF0A3ECF0A3EDF0A3EAC5
:04210900F0A3EBF064
:10210D00E49001A3F078A47C017D017BFF7A6079D6
:10211D0019FE7F021212859001AE121510000000FB
:10212D00009001B61215100000000078BA7C017DF8
:10213D00017BFF7A60791B7E007F81121285783BCF
:10214D007C027D017BFF7A60799C7E007F411212BB
:10215D0085900199E0FAA3E0FB64014A700C9001AF
:10216D00B21215100000000C803EEB64024A700C98
:10217D009001B212151000000010802C900199E012
:10218D00FAA3E0FB64034A700C9001B21215100023
:10219D000000188013EB64044A60030229D79001F4
:1021AD00B2121510000000209001B2E0F8A3E0F982
:1021BD00A3E0FAA3E0FBE47FE07E01FDFC121440F6
:1021CD009001ACEEF0A3EFF09001B2E0F8A3E0F9CE
:1021DD00A3E0FAA3E0FBE47F407E01FDFC12144076
:1021ED009001AAEEF0A3EFF0E49001A2F090019B14
:1021FD00E0FBA3E0FAA3E0F9126B809001A2E0C32B
:10220D009FEE6480F874809840030229BA90019B78
:10221D00E0FBA3E0FAA3E0F99001A2E0FFF58275DF
:10222D0083001212C49001A4F08F82758300A31253
:10223D0012C49001A5F09001A2E0900196E02FFF4D
:10224D00900195E03400FE9001A3E07C002FFBECA3
:10225D003EFA9001ACE0FCA3E0FDAF03AE02121319
:10226D00159001A6ECF0A3EDF09001ACE0FCA3E01D
:10227D00FDAF03AE02121315900198E02FFF9001F0
:10228D0097E03EFE9001AAE0FCA3E0FD121315902D
:10229D0001A8ECF0A3EDF09001A4E0C394804003FD
:1022AD000225829001B2E0FCA3E0FDA3E0FEA3E0D5
:1022BD00540FFFE4FEFDFCEF600DE47F01C004C090
:1022CD0005C006C0078011E4FFFEFDFCFBFAF9F81E
:1022DD00C000C001C002C003E47B10FAF9F8900100
:1022ED00B2E0FCA3E0FDA3E0FEA3E0FF121440D09A
:1022FD0003D002D001D000EF2BFFEE3AFEED39FDF9
:10230D00EC38FC9001B2E0F8A3E0F9A3E0FAA3E009
:10231D00FB1213B59001AE1215049001A4E0FFE479
:10232D00FCFDFE9001AEE0F8A3E0F9A3E0FAA3E016
:10233D00FB1213B59001B6121504E47F0CFEFDFCE3
:10234D009001B2E0F8A3E0F9A3E0FAA3E0FBC31219
:10235D0014E070499001B6E0FCA3E0FDA3E0FEA3FC
:10236D00E0FF900009E0F8A3E0F9A3E0FAA3E02F65
:10237D00FFEA3EFEE93DFDE83CFCC0079001AEE002
:10238D00A3E0A3E0FFA3E0900283CFF0A3EFF07BE7
:10239D00017A0179BAD0071262EF0224CFE47F10DF
:1023AD00FEFDFC9001B2E0F8A3E0F9A3E0FAA3E092
:1023BD00FBC31214E070499001B6E0FCA3E0FDA34D
:1023CD00E0FEA3E0FF900011E0F8A3E0F9A3E0FA2E
:1023DD00A3E02FFFEA3EFEE93DFDE83CFCC007907F
:1023ED0001AEE0A3E0A3E0FFA3E0900283CFF0A352
:1023FD00EFF07B017A0179BAD0071262EF0224CF98
:10240D00E47F18FEFDFC9001B2E0F8A3E0F9A3E033
:10241D00FAA3E0FBC31214E070489001B6E0FCA3F0
:10242D00E0FDA3E0FEA3E0FF900019E0F8A3E0F9C2
:10243D00A3E0FAA3E02FFFEA3EFEE93DFDE83CFCF8
:10244D00C0079001AEE0A3E0A3E0FFA3E0900283FC
:10245D00CFF0A3EFF07B017A0179BAD0071262EFCA
:10246D008060E47F20FEFDFC9001B2E0F8A3E0F96E
:10247D00A3E0FAA3E0FBC31214E070469001B6E0AE
:10248D00FCA3E0FDA3E0FEA3E0FF900021E0F8A394
:10249D00E0F9A3E0FAA3E02FFFEA3EFEE93DFDE8F7
:1024AD003CFCC0079001AEE0A3E0A3E0FFA3E090E9
:1024BD000283CFF0A3EFF07B017A0179BAD0071236
:1024CD0062EF9001A6E0FEA3E0FFE4FCFD9001B2F7
:1024DD00E0F8A3E0F9A3E0FAA3E0FB1213B5E47B67
:1024ED0002FAF9F8121440C006C0079001A8E0FEE8
:1024FD00A3E0FFE4FCFD9001B2E0F8A3E0F9A3E056
:10250D00FAA3E0FB1213B5AD07AC06C004C005E499
:10251D007B02FAF9F89001B2E0FCA3E0FDA3E0FE26
:10252D00A3E0FF121440AB07AA069001B2E0A3E0AE
:10253D00A3E0FFA3E0900282CFF0A3EFF0A374011C
:10254D00F0A37401F0A374BAF090019EE0FFA3E034
:10255D00900287CFF0A3EFF09001A0E0FFA3E090F1
:10256D000289CFF0A3EFF0D005D004D007D006122A
:10257D0052070229B19001ADE024FFFD9001ACE0BE
:10258D0034FFFC9001A6E0FEA3E0FF6D7002EE6C3F
:10259D006003022658FCFD9001B2E0F8A3E0F9A318
:1025AD00E0FAA3E0FB1213B5E47B02FAF9F812147A
:1025BD0040C006C0079001A8E0FEA3E0FFE4FCFDCB
:1025CD009001B2E0F8A3E0F9A3E0FAA3E0FB121347
:1025DD00B5AD07AC06C004C005E47B02FAF9F8906E
:1025ED0001B2E0FCA3E0FDA3E0FEA3E0FF12144066
:1025FD00AB07AA069001B2E0A3E0A3E0FFA3E09031
:10260D000282CFF0A3EFF0A37401F0A37402F0A344
:10261D00743BF090019EE0FFA3E0900287CFF0A302
:10262D00EFF09001A0E0FFA3E0900289CFF0A3EFBF
:10263D00F0D005D004D007D0061252079001A3E0C8
:10264D0004F09001A2E014F00229B19001B2E0FC77
:10265D00A3E0FDA3E0FEA3E05407FFE4FEFDFCEFC5
:10266D00600DE47F01C004C005C006C0078011E401
:10267D00FFFEFDFCFBFAF9F8C000C001C002C0036B
:10268D00E47B08FAF9F89001B2E0FCA3E0FDA3E0C9
:10269D00FEA3E0FF121440D003D002D001D000EF12
:1026AD002BFFEE3AFEED39FDEC38FC9001B2E0F86F
:1026BD00A3E0F9A3E0FAA3E0FB1213B59001AE126B
:1026CD0015049001A5E0D3947F40569001A4E02419
:1026DD007FFFE434FFFE7C007DBE121587A804A9A0
:1026ED0005AA06AB07A3E0FFE4FCFDFEEB2FFFEE12
:1026FD003AFEED39FDEC38FCEF24BFFFEE34FFFE62
:10270D00ED34FFFDEC34FFFC9001AEE0F8A3E0F9F1
